{
  "_format": "hh-sol-artifact-1",
  "contractName": "Review",
  "sourceName": "contracts/Review.sol",
  "abi": [
    {
      "inputs": [
        {
          "internalType": "address",
          "name": "semaphoreAddress",
          "type": "address"
        }
      ],
      "stateMutability": "nonpayable",
      "type": "constructor"
    },
    {
      "inputs": [
        {
          "internalType": "uint256",
          "name": "",
          "type": "uint256"
        },
        {
          "internalType": "uint256",
          "name": "",
          "type": "uint256"
        }
      ],
      "name": "comments",
      "outputs": [
        {
          "internalType": "uint256",
          "name": "",
          "type": "uint256"
        }
      ],
      "stateMutability": "view",
      "type": "function"
    },
    {
      "inputs": [
        {
          "internalType": "uint256",
          "name": "key",
          "type": "uint256"
        }
      ],
      "name": "getComments",
      "outputs": [
        {
          "internalType": "uint256[]",
          "name": "",
          "type": "uint256[]"
        }
      ],
      "stateMutability": "view",
      "type": "function"
    },
    {
      "inputs": [],
      "name": "getPosts",
      "outputs": [
        {
          "internalType": "uint256[]",
          "name": "",
          "type": "uint256[]"
        }
      ],
      "stateMutability": "view",
      "type": "function"
    },
    {
      "inputs": [
        {
          "internalType": "uint256",
          "name": "identityCommitment",
          "type": "uint256"
        }
      ],
      "name": "joinOwnerGroup",
      "outputs": [],
      "stateMutability": "nonpayable",
      "type": "function"
    },
    {
      "inputs": [
        {
          "internalType": "uint256",
          "name": "identityCommitment",
          "type": "uint256"
        },
        {
          "internalType": "uint256",
          "name": "r",
          "type": "uint256"
        },
        {
          "internalType": "uint256",
          "name": "s",
          "type": "uint256"
        }
      ],
      "name": "joinReviewerGroup",
      "outputs": [],
      "stateMutability": "nonpayable",
      "type": "function"
    },
    {
      "inputs": [],
      "name": "ownerGroupId",
      "outputs": [
        {
          "internalType": "uint256",
          "name": "",
          "type": "uint256"
        }
      ],
      "stateMutability": "view",
      "type": "function"
    },
    {
      "inputs": [],
      "name": "reviewerGroupId",
      "outputs": [
        {
          "internalType": "uint256",
          "name": "",
          "type": "uint256"
        }
      ],
      "stateMutability": "view",
      "type": "function"
    },
    {
      "inputs": [],
      "name": "semaphore",
      "outputs": [
        {
          "internalType": "contract ISemaphore",
          "name": "",
          "type": "address"
        }
      ],
      "stateMutability": "view",
      "type": "function"
    },
    {
      "inputs": [
        {
          "internalType": "uint256",
          "name": "merkleTreeDepth",
          "type": "uint256"
        },
        {
          "internalType": "uint256",
          "name": "merkleTreeRoot",
          "type": "uint256"
        },
        {
          "internalType": "uint256",
          "name": "nullifier",
          "type": "uint256"
        },
        {
          "internalType": "uint256",
          "name": "comment",
          "type": "uint256"
        },
        {
          "internalType": "uint256[8]",
          "name": "points",
          "type": "uint256[8]"
        },
        {
          "internalType": "uint256",
          "name": "review",
          "type": "uint256"
        }
      ],
      "name": "sendComment",
      "outputs": [],
      "stateMutability": "nonpayable",
      "type": "function"
    },
    {
      "inputs": [
        {
          "internalType": "uint256",
          "name": "merkleTreeDepth",
          "type": "uint256"
        },
        {
          "internalType": "uint256",
          "name": "merkleTreeRoot",
          "type": "uint256"
        },
        {
          "internalType": "uint256",
          "name": "nullifier",
          "type": "uint256"
        },
        {
          "internalType": "uint256",
          "name": "review",
          "type": "uint256"
        },
        {
          "internalType": "uint256",
          "name": "reviewerId",
          "type": "uint256"
        },
        {
          "internalType": "uint256[8]",
          "name": "points",
          "type": "uint256[8]"
        }
      ],
      "name": "sendPost",
      "outputs": [],
      "stateMutability": "nonpayable",
      "type": "function"
    }
  ],
  "bytecode": "0x60806040523480156200001157600080fd5b5060405162000ee538038062000ee583398181016040528101906200003791906200021c565b806000806101000a81548173ffffffffffffffffffffffffffffffffffffffff021916908373ffffffffffffffffffffffffffffffffffffffff16021790555060008054906101000a900473ffffffffffffffffffffffffffffffffffffffff1673ffffffffffffffffffffffffffffffffffffffff1663575185ed6040518163ffffffff1660e01b81526004016020604051808303816000875af1158015620000e5573d6000803e3d6000fd5b505050506040513d601f19601f820116820180604052508101906200010b919062000289565b60018190555060008054906101000a900473ffffffffffffffffffffffffffffffffffffffff1673ffffffffffffffffffffffffffffffffffffffff1663575185ed6040518163ffffffff1660e01b81526004016020604051808303816000875af11580156200017f573d6000803e3d6000fd5b505050506040513d601f19601f82011682018060405250810190620001a5919062000289565b60028190555050620002bb565b600080fd5b600073ffffffffffffffffffffffffffffffffffffffff82169050919050565b6000620001e482620001b7565b9050919050565b620001f681620001d7565b81146200020257600080fd5b50565b6000815190506200021681620001eb565b92915050565b600060208284031215620002355762000234620001b2565b5b6000620002458482850162000205565b91505092915050565b6000819050919050565b62000263816200024e565b81146200026f57600080fd5b50565b600081519050620002838162000258565b92915050565b600060208284031215620002a257620002a1620001b2565b5b6000620002b28482850162000272565b91505092915050565b610c1a80620002cb6000396000f3fe608060405234801561001057600080fd5b506004361061009e5760003560e01c80637b5d2534116100665780637b5d253414610147578063b2088ffb14610165578063d09611cb14610181578063dababcff1461019d578063fc6c776f146101bb5761009e565b80631c51333f146100a357806323edf697146100bf5780633c6d0493146100ef57806341f3004a1461010b57806361e3c09414610129575b600080fd5b6100bd60048036038101906100b89190610710565b6101eb565b005b6100d960048036038101906100d4919061079e565b610328565b6040516100e69190610889565b60405180910390f35b610109600480360381019061010491906108ab565b610393565b005b610113610427565b6040516101209190610889565b60405180910390f35b61013161047f565b60405161013e919061090d565b60405180910390f35b61014f610485565b60405161015c91906109a7565b60405180910390f35b61017f600480360381019061017a91906109c2565b6104a9565b005b61019b6004803603810190610196919061079e565b6105e5565b005b6101a5610677565b6040516101b2919061090d565b60405180910390f35b6101d560048036038101906101d09190610a51565b61067d565b6040516101e2919061090d565b60405180910390f35b60006040518060c00160405280888152602001878152602001868152602001858152602001848152602001836008806020026040519081016040528092919082600860200280828437600081840152601f19601f820116905080830192505050505050815250905060008054906101000a900473ffffffffffffffffffffffffffffffffffffffff1673ffffffffffffffffffffffffffffffffffffffff1663d0d898dd600154836040518363ffffffff1660e01b81526004016102b0929190610b91565b600060405180830381600087803b1580156102ca57600080fd5b505af11580156102de573d6000803e3d6000fd5b505050506003849080600181540180825580915050600190039060005260206000200160009091909190915055600460008581526020019081526020016000205050505050505050565b60606004600083815260200190815260200160002080548060200260200160405190810160405280929190818152602001828054801561038757602002820191906000526020600020905b815481526020019060010190808311610373575b50505050509050919050565b60008054906101000a900473ffffffffffffffffffffffffffffffffffffffff1673ffffffffffffffffffffffffffffffffffffffff16631783efc3600154856040518363ffffffff1660e01b81526004016103f0929190610bbb565b600060405180830381600087803b15801561040a57600080fd5b505af115801561041e573d6000803e3d6000fd5b50505050505050565b6060600380548060200260200160405190810160405280929190818152602001828054801561047557602002820191906000526020600020905b815481526020019060010190808311610461575b5050505050905090565b60015481565b60008054906101000a900473ffffffffffffffffffffffffffffffffffffffff1681565b60006040518060c001604052808881526020018781526020018681526020018581526020016001548152602001846008806020026040519081016040528092919082600860200280828437600081840152601f19601f820116905080830192505050505050815250905060008054906101000a900473ffffffffffffffffffffffffffffffffffffffff1673ffffffffffffffffffffffffffffffffffffffff1663d0d898dd600154836040518363ffffffff1660e01b8152600401610570929190610b91565b600060405180830381600087803b15801561058a57600080fd5b505af115801561059e573d6000803e3d6000fd5b505050506004600083815260200190815260200160002084908060018154018082558091505060019003906000526020600020016000909190919091505550505050505050565b60008054906101000a900473ffffffffffffffffffffffffffffffffffffffff1673ffffffffffffffffffffffffffffffffffffffff16631783efc3600254836040518363ffffffff1660e01b8152600401610642929190610bbb565b600060405180830381600087803b15801561065c57600080fd5b505af1158015610670573d6000803e3d6000fd5b5050505050565b60025481565b6004602052816000526040600020818154811061069957600080fd5b90600052602060002001600091509150505481565b600080fd5b6000819050919050565b6106c6816106b3565b81146106d157600080fd5b50565b6000813590506106e3816106bd565b92915050565b600080fd5b60008190508260206008028201111561070a576107096106e9565b5b92915050565b6000806000806000806101a0878903121561072e5761072d6106ae565b5b600061073c89828a016106d4565b965050602061074d89828a016106d4565b955050604061075e89828a016106d4565b945050606061076f89828a016106d4565b935050608061078089828a016106d4565b92505060a061079189828a016106ee565b9150509295509295509295565b6000602082840312156107b4576107b36106ae565b5b60006107c2848285016106d4565b91505092915050565b600081519050919050565b600082825260208201905092915050565b6000819050602082019050919050565b610800816106b3565b82525050565b600061081283836107f7565b60208301905092915050565b6000602082019050919050565b6000610836826107cb565b61084081856107d6565b935061084b836107e7565b8060005b8381101561087c5781516108638882610806565b975061086e8361081e565b92505060018101905061084f565b5085935050505092915050565b600060208201905081810360008301526108a3818461082b565b905092915050565b6000806000606084860312156108c4576108c36106ae565b5b60006108d2868287016106d4565b93505060206108e3868287016106d4565b92505060406108f4868287016106d4565b9150509250925092565b610907816106b3565b82525050565b600060208201905061092260008301846108fe565b92915050565b600073ffffffffffffffffffffffffffffffffffffffff82169050919050565b6000819050919050565b600061096d61096861096384610928565b610948565b610928565b9050919050565b600061097f82610952565b9050919050565b600061099182610974565b9050919050565b6109a181610986565b82525050565b60006020820190506109bc6000830184610998565b92915050565b6000806000806000806101a087890312156109e0576109df6106ae565b5b60006109ee89828a016106d4565b96505060206109ff89828a016106d4565b9550506040610a1089828a016106d4565b9450506060610a2189828a016106d4565b9350506080610a3289828a016106ee565b925050610180610a4489828a016106d4565b9150509295509295509295565b60008060408385031215610a6857610a676106ae565b5b6000610a76858286016106d4565b9250506020610a87858286016106d4565b9150509250929050565b600060089050919050565b600081905092915050565b6000819050919050565b6000602082019050919050565b610ac781610a91565b610ad18184610a9c565b9250610adc82610aa7565b8060005b83811015610b0d578151610af48782610806565b9650610aff83610ab1565b925050600181019050610ae0565b505050505050565b6101a082016000820151610b2c60008501826107f7565b506020820151610b3f60208501826107f7565b506040820151610b5260408501826107f7565b506060820151610b6560608501826107f7565b506080820151610b7860808501826107f7565b5060a0820151610b8b60a0850182610abe565b50505050565b60006101c082019050610ba760008301856108fe565b610bb46020830184610b15565b9392505050565b6000604082019050610bd060008301856108fe565b610bdd60208301846108fe565b939250505056fea26469706673582212200c235d2bca05a0b6b0a1f085b1d60460253116434730a5e9d4b09e8ad44fe8d564736f6c63430008170033",
  "linkReferences": {},
  "deployedLinkReferences": {}
}